{
  "contractName": "CareerManagement",
  "abi": [
    {
      "inputs": [
        {
          "internalType": "address[]",
          "name": "authorizerNames",
          "type": "address[]"
        }
      ],
      "payable": false,
      "stateMutability": "nonpayable",
      "type": "constructor"
    },
    {
      "constant": false,
      "inputs": [
        {
          "internalType": "string",
          "name": "code",
          "type": "string"
        }
      ],
      "name": "register",
      "outputs": [],
      "payable": false,
      "stateMutability": "nonpayable",
      "type": "function"
    },
    {
      "constant": false,
      "inputs": [
        {
          "internalType": "string",
          "name": "code",
          "type": "string"
        }
      ],
      "name": "certify",
      "outputs": [],
      "payable": false,
      "stateMutability": "nonpayable",
      "type": "function"
    },
    {
      "constant": true,
      "inputs": [
        {
          "internalType": "string",
          "name": "code",
          "type": "string"
        }
      ],
      "name": "verify",
      "outputs": [
        {
          "internalType": "bool",
          "name": "",
          "type": "bool"
        }
      ],
      "payable": false,
      "stateMutability": "view",
      "type": "function"
    },
    {
      "constant": true,
      "inputs": [],
      "name": "getAuthorisers",
      "outputs": [
        {
          "internalType": "address[]",
          "name": "",
          "type": "address[]"
        }
      ],
      "payable": false,
      "stateMutability": "view",
      "type": "function"
    },
    {
      "constant": false,
      "inputs": [
        {
          "internalType": "address",
          "name": "authorizer",
          "type": "address"
        }
      ],
      "name": "addAuthorizer",
      "outputs": [],
      "payable": false,
      "stateMutability": "nonpayable",
      "type": "function"
    }
  ],
  "bytecode": "0x608060405234801561001057600080fd5b506040516108ca3803806108ca8339818101604052602081101561003357600080fd5b810190808051604051939291908464010000000082111561005357600080fd5b8382019150602082018581111561006957600080fd5b825186602082028301116401000000008211171561008657600080fd5b8083526020830192505050908051906020019060200280838360005b838110156100bd5780820151818401526020810190506100a2565b5050505090500160405250505080600090805190602001906100e09291906100e7565b50506101b4565b828054828255906000526020600020908101928215610160579160200282015b8281111561015f5782518260006101000a81548173ffffffffffffffffffffffffffffffffffffffff021916908373ffffffffffffffffffffffffffffffffffffffff16021790555091602001919060010190610107565b5b50905061016d9190610171565b5090565b6101b191905b808211156101ad57600081816101000a81549073ffffffffffffffffffffffffffffffffffffffff021916905550600101610177565b5090565b90565b610707806101c36000396000f3fe608060405234801561001057600080fd5b50600436106100575760003560e01c80634a4666c11461005c57806352bf3214146100a05780638fded3ac146100ff578063bb9c6c3e146101ba578063f2c298be1461028d575b600080fd5b61009e6004803603602081101561007257600080fd5b81019080803573ffffffffffffffffffffffffffffffffffffffff169060200190929190505050610348565b005b6100a86103b1565b6040518080602001828103825283818151815260200191508051906020019060200280838360005b838110156100eb5780820151818401526020810190506100d0565b505050509050019250505060405180910390f35b6101b86004803603602081101561011557600080fd5b810190808035906020019064010000000081111561013257600080fd5b82018360208201111561014457600080fd5b8035906020019184600183028401116401000000008311171561016657600080fd5b91908080601f016020809104026020016040519081016040528093929190818152602001838380828437600081840152601f19601f82011690508083019250505050505050919291929050505061043f565b005b610273600480360360208110156101d057600080fd5b81019080803590602001906401000000008111156101ed57600080fd5b8201836020820111156101ff57600080fd5b8035906020019184600183028401116401000000008311171561022157600080fd5b91908080601f016020809104026020016040519081016040528093929190818152602001838380828437600081840152601f19601f8201169050808301925050505050505091929192905050506105cd565b604051808215151515815260200191505060405180910390f35b610346600480360360208110156102a357600080fd5b81019080803590602001906401000000008111156102c057600080fd5b8201836020820111156102d257600080fd5b803590602001918460018302840111640100000000831117156102f457600080fd5b91908080601f016020809104026020016040519081016040528093929190818152602001838380828437600081840152601f19601f82011690508083019250505050505050919291929050505061064d565b005b60008190806001815401808255809150509060018203906000526020600020016000909192909190916101000a81548173ffffffffffffffffffffffffffffffffffffffff021916908373ffffffffffffffffffffffffffffffffffffffff1602179055505050565b6060600080548060200260200160405190810160405280929190818152602001828054801561043557602002820191906000526020600020905b8160009054906101000a900473ffffffffffffffffffffffffffffffffffffffff1673ffffffffffffffffffffffffffffffffffffffff16815260200190600101908083116103eb575b5050505050905090565b600080905060008090505b6000805490508110156104d4573373ffffffffffffffffffffffffffffffffffffffff166000828154811061047b57fe5b9060005260206000200160009054906101000a900473ffffffffffffffffffffffffffffffffffffffff1673ffffffffffffffffffffffffffffffffffffffff1614156104c757600191505b808060010191505061044a565b5080610548576040517f08c379a00000000000000000000000000000000000000000000000000000000081526004018080602001828103825260178152602001807f796f7520617265206e6f74207175616c69666965642e2e00000000000000000081525060200191505060405180910390fd5b600180836040518082805190602001908083835b6020831061057f578051825260208201915060208101905060208303925061055c565b6001836020036101000a038019825116818451168082178552505050505050905001915050908152602001604051809103902060006101000a81548160ff0219169083151502179055505050565b60006001826040518082805190602001908083835b6020831061060557805182526020820191506020810190506020830392506105e2565b6001836020036101000a038019825116818451168082178552505050505050905001915050908152602001604051809103902060009054906101000a900460ff169050919050565b60006001826040518082805190602001908083835b602083106106855780518252602082019150602081019050602083039250610662565b6001836020036101000a038019825116818451168082178552505050505050905001915050908152602001604051809103902060006101000a81548160ff0219169083151502179055505056fea265627a7a72315820d88d2196cf109b1ef0a9f5cad21af6e3045f5bcc1872f8c8beaba66f3ce71bdf64736f6c63430005100032",
  "source": "pragma solidity ^0.5.1;\r\n// We have to specify what version of compiler this code will compile with\r\n\r\ncontract CareerManagement {\r\n\r\n  address[] authorizers;\r\n  mapping(string => bool) careerStateMap;\r\n\r\n  //인증자(기업,기관 등)에 대한 정보는 컨트랙트 배포 시 설정\r\n  constructor(address[] memory authorizerNames) public {\r\n    authorizers = authorizerNames;\r\n  }\r\n\r\n\r\n  modifier onlyAuthorizer(){\r\n    bool isVerified = false;\r\n    for(uint i = 0;i < authorizers.length; i++){\r\n      if(authorizers[i] == msg.sender)\r\n        isVerified = true;\r\n    }\r\n    require(isVerified,\"you are not qualified..\");\r\n    _;                       //modifier함수가 실행된 본체의 함수를 실행\r\n  }\r\n\r\n\r\n  // modifier matchCode(string memory code){\r\n  //   bool isVerified = false;\r\n  //   if(keccak256(abi.encodePacked(subAuthAddr(code))) == keccak256(abi.encodePacked(addressToString(msg.sender))))\r\n  //       isVerified = true;\r\n    \r\n  //   require(isVerified,\"you are not a authenticator\");\r\n  //   _;                       //modifier함수가 실행된 본체의 함수를 실행\r\n  // }\r\n\r\n\r\n\r\n\r\n  // function addressToString(address _addr) internal returns(string memory) {\r\n  //   bytes32 value = bytes32(uint256(_addr));\r\n  //   bytes memory alphabet = \"0123456789abcdef\";\r\n\r\n  //   bytes memory str = new bytes(51);\r\n  //   str[0] = \"0\";\r\n  //   str[1] = \"x\";\r\n  //   for (uint i = 0; i < 20; i++) {\r\n  //       str[2+i*2] = alphabet[uint(uint8(value[i + 12] >> 4))];\r\n  //       str[3+i*2] = alphabet[uint(uint8(value[i + 12] & 0x0f))];\r\n  //   }\r\n  //   return string(str);\r\n  // }\r\n\r\n\r\n  // function subAuthAddr(string memory code)\r\n  // internal\r\n  // returns (string memory) {\r\n      \r\n  //   bytes memory codeBytes = bytes(code);\r\n  //   bytes memory result = new bytes(42);\r\n  //   for(uint i = 0; i < 42; i++) {     \r\n  //       result[i] = codeBytes[codeBytes.length-42+i];\r\n  //   }\r\n  //   return string(result);\r\n  // }\r\n  \r\n  \r\n\r\n\r\n/// @dev 경력 추가 => career code 생성. (default status = false) \r\n/// @param code =  careerId + empAddress + authAddress.\r\n  function register(string memory code)\r\n  public {\r\n    careerStateMap[code] = false;\r\n  }\r\n\r\n/// @dev 경력 인증 => career status 수정  \r\n/// @param code =  careerId + empAddress + authAddress.\r\n  function certify(string memory code)\r\n  public\r\n  onlyAuthorizer\r\n  // matchCode(code)\r\n  {\r\n    careerStateMap[code] = true;\r\n  }\r\n\r\n/// @dev 경력 상태 확인  \r\n/// @param code =  careerId + empAddress + authAddress.\r\n/// @return 경력 인증 상태 (boolean) \r\n  function verify(string memory code) view public returns(bool){\r\n    return careerStateMap[code];\r\n  }\r\n\r\n  function getAuthorisers() view public returns (address[] memory){\r\n    return authorizers;\r\n  }\r\n  \r\n  function addAuthorizer(address authorizer) public{\r\n    authorizers.push(authorizer);\r\n  }\r\n}",
  "sourcePath": "C:/Users/USER/Desktop/reactCM/contracts/CareerManagement.sol",
  "compiler": {
    "name": "solc",
    "version": "0.5.16+commit.9c3226ce.Emscripten.clang"
  },
  "schemaVersion": "3.3.4",
  "updatedAt": "2021-06-03T05:49:02.512Z",
  "devdoc": {
    "methods": {
      "certify(string)": {
        "details": "경력 인증 => career status 수정  ",
        "params": {
          "code": "=  careerId + empAddress + authAddress."
        }
      },
      "register(string)": {
        "details": "경력 추가 => career code 생성. (default status = false) ",
        "params": {
          "code": "=  careerId + empAddress + authAddress."
        }
      },
      "verify(string)": {
        "details": "경력 상태 확인  ",
        "params": {
          "code": "=  careerId + empAddress + authAddress."
        },
        "return": "경력 인증 상태 (boolean) "
      }
    }
  },
  "userdoc": {
    "methods": {}
  }
}