{
  "contractName": "CareerManagement",
  "abi": [
    {
      "inputs": [
        {
          "internalType": "address[]",
          "name": "authorizerNames",
          "type": "address[]"
        }
      ],
      "payable": false,
      "stateMutability": "nonpayable",
      "type": "constructor"
    },
    {
      "constant": false,
      "inputs": [
        {
          "internalType": "string",
          "name": "code",
          "type": "string"
        }
      ],
      "name": "register",
      "outputs": [],
      "payable": false,
      "stateMutability": "nonpayable",
      "type": "function"
    },
    {
      "constant": false,
      "inputs": [
        {
          "internalType": "string",
          "name": "code",
          "type": "string"
        }
      ],
      "name": "certify",
      "outputs": [],
      "payable": false,
      "stateMutability": "nonpayable",
      "type": "function"
    },
    {
      "constant": true,
      "inputs": [
        {
          "internalType": "string",
          "name": "code",
          "type": "string"
        }
      ],
      "name": "verify",
      "outputs": [
        {
          "internalType": "bool",
          "name": "",
          "type": "bool"
        }
      ],
      "payable": false,
      "stateMutability": "view",
      "type": "function"
    }
  ],
  "bytecode": "0x608060405234801561001057600080fd5b506040516108263803806108268339818101604052602081101561003357600080fd5b810190808051604051939291908464010000000082111561005357600080fd5b8382019150602082018581111561006957600080fd5b825186602082028301116401000000008211171561008657600080fd5b8083526020830192505050908051906020019060200280838360005b838110156100bd5780820151818401526020810190506100a2565b5050505090500160405250505080600090805190602001906100e09291906100e7565b50506101b4565b828054828255906000526020600020908101928215610160579160200282015b8281111561015f5782518260006101000a81548173ffffffffffffffffffffffffffffffffffffffff021916908373ffffffffffffffffffffffffffffffffffffffff16021790555091602001919060010190610107565b5b50905061016d9190610171565b5090565b6101b191905b808211156101ad57600081816101000a81549073ffffffffffffffffffffffffffffffffffffffff021916905550600101610177565b5090565b90565b610663806101c36000396000f3fe608060405234801561001057600080fd5b50600436106100415760003560e01c80638fded3ac14610046578063bb9c6c3e14610101578063f2c298be146101d4575b600080fd5b6100ff6004803603602081101561005c57600080fd5b810190808035906020019064010000000081111561007957600080fd5b82018360208201111561008b57600080fd5b803590602001918460018302840111640100000000831117156100ad57600080fd5b91908080601f016020809104026020016040519081016040528093929190818152602001838380828437600081840152601f19601f82011690508083019250505050505050919291929050505061028f565b005b6101ba6004803603602081101561011757600080fd5b810190808035906020019064010000000081111561013457600080fd5b82018360208201111561014657600080fd5b8035906020019184600183028401116401000000008311171561016857600080fd5b91908080601f016020809104026020016040519081016040528093929190818152602001838380828437600081840152601f19601f820116905080830192505050505050509192919290505050610529565b604051808215151515815260200191505060405180910390f35b61028d600480360360208110156101ea57600080fd5b810190808035906020019064010000000081111561020757600080fd5b82018360208201111561021957600080fd5b8035906020019184600183028401116401000000008311171561023b57600080fd5b91908080601f016020809104026020016040519081016040528093929190818152602001838380828437600081840152601f19601f8201169050808301925050505050505091929192905050506105a9565b005b600080905060008090505b600080549050811015610324573373ffffffffffffffffffffffffffffffffffffffff16600082815481106102cb57fe5b9060005260206000200160009054906101000a900473ffffffffffffffffffffffffffffffffffffffff1673ffffffffffffffffffffffffffffffffffffffff16141561031757600191505b808060010191505061029a565b5080610398576040517f08c379a00000000000000000000000000000000000000000000000000000000081526004018080602001828103825260178152602001807f796f7520617265206e6f74207175616c69666965642e2e00000000000000000081525060200191505060405180910390fd5b81600080905060008090505b60008054905081101561042e573373ffffffffffffffffffffffffffffffffffffffff16600082815481106103d557fe5b9060005260206000200160009054906101000a900473ffffffffffffffffffffffffffffffffffffffff1673ffffffffffffffffffffffffffffffffffffffff16141561042157600191505b80806001019150506103a4565b50806104a2576040517f08c379a00000000000000000000000000000000000000000000000000000000081526004018080602001828103825260178152602001807f796f7520617265206e6f74207175616c69666965642e2e00000000000000000081525060200191505060405180910390fd5b600180856040518082805190602001908083835b602083106104d957805182526020820191506020810190506020830392506104b6565b6001836020036101000a038019825116818451168082178552505050505050905001915050908152602001604051809103902060006101000a81548160ff02191690831515021790555050505050565b60006001826040518082805190602001908083835b60208310610561578051825260208201915060208101905060208303925061053e565b6001836020036101000a038019825116818451168082178552505050505050905001915050908152602001604051809103902060009054906101000a900460ff169050919050565b60006001826040518082805190602001908083835b602083106105e157805182526020820191506020810190506020830392506105be565b6001836020036101000a038019825116818451168082178552505050505050905001915050908152602001604051809103902060006101000a81548160ff0219169083151502179055505056fea265627a7a723158201948b2509fb17dd9cef1bb3f1fe7f04e61df376d4282c5acc10d88196bde573b64736f6c63430005100032",
  "source": "pragma solidity ^0.5.1;\n// We have to specify what version of compiler this code will compile with\n\ncontract CareerManagement {\n\n  address[] authorizers;\n  mapping(string => bool) careerStateMap;\n\n  // 인증자(기업,기관 등)에 대한 정보는 컨트랙트 배포 시 설정\n  constructor(address[] memory authorizerNames) public {\n    authorizers = authorizerNames;\n  }\n\n  modifier onlyAuthorizer(){\n    bool isVerified = false;\n    for(uint i = 0;i < authorizers.length; i++){\n      if(authorizers[i] == msg.sender)\n        isVerified = true;\n    }\n    require(isVerified,\"you are not qualified..\");\n    _;                       //modifier함수가 실행된 본체의 함수를 실행\n  }\n\n  modifier matchCode(string memory code){\n    bool isVerified = false;\n    for(uint i = 0;i < authorizers.length; i++){\n      if(authorizers[i] == msg.sender)\n        isVerified = true;\n    }\n    require(isVerified,\"you are not qualified..\");\n    _;                       //modifier함수가 실행된 본체의 함수를 실행\n  }\n\n\n\n  // 경력 등록\n  // code => careerId + authId + empId\n  function register(string memory code)\n  public {\n    careerStateMap[code] = false;\n\n  }\n\n\n  function certify(string memory code)\n  public\n  onlyAuthorizer\n  matchCode(code){\n    careerStateMap[code] = true;\n  }\n\n  function verify(string memory code) view public returns(bool){\n    return careerStateMap[code];\n  }\n\n}",
  "sourcePath": "C:/Users/USER/Desktop/reactCM/contracts/CareerManagement.sol",
  "compiler": {
    "name": "solc",
    "version": "0.5.16+commit.9c3226ce.Emscripten.clang"
  },
  "schemaVersion": "3.3.4",
  "updatedAt": "2021-03-19T07:59:57.879Z",
  "networkType": "ethereum",
  "devdoc": {
    "methods": {}
  },
  "userdoc": {
    "methods": {}
  }
}